{
  "contractName": "BookLibrary",
  "abi": [
    {
      "anonymous": false,
      "inputs": [
        {
          "indexed": false,
          "internalType": "address",
          "name": "_user",
          "type": "address"
        },
        {
          "indexed": false,
          "internalType": "string",
          "name": "_bookName",
          "type": "string"
        }
      ],
      "name": "BookBorrowed",
      "type": "event"
    },
    {
      "anonymous": false,
      "inputs": [
        {
          "indexed": false,
          "internalType": "address",
          "name": "_user",
          "type": "address"
        },
        {
          "indexed": false,
          "internalType": "string",
          "name": "_bookName",
          "type": "string"
        }
      ],
      "name": "BookReturned",
      "type": "event"
    },
    {
      "anonymous": false,
      "inputs": [
        {
          "indexed": false,
          "internalType": "address",
          "name": "_user",
          "type": "address"
        },
        {
          "indexed": false,
          "internalType": "string",
          "name": "_bookName",
          "type": "string"
        },
        {
          "indexed": false,
          "internalType": "uint64",
          "name": "_quantity",
          "type": "uint64"
        }
      ],
      "name": "NewBookAdded",
      "type": "event"
    },
    {
      "inputs": [
        {
          "internalType": "uint256",
          "name": "",
          "type": "uint256"
        }
      ],
      "name": "bookKeys",
      "outputs": [
        {
          "internalType": "bytes32",
          "name": "",
          "type": "bytes32"
        }
      ],
      "stateMutability": "view",
      "type": "function"
    },
    {
      "inputs": [
        {
          "internalType": "bytes32",
          "name": "",
          "type": "bytes32"
        }
      ],
      "name": "books",
      "outputs": [
        {
          "internalType": "string",
          "name": "bookName",
          "type": "string"
        },
        {
          "internalType": "uint64",
          "name": "numberOfCopies",
          "type": "uint64"
        },
        {
          "internalType": "bytes32",
          "name": "bookId",
          "type": "bytes32"
        }
      ],
      "stateMutability": "view",
      "type": "function"
    },
    {
      "inputs": [],
      "name": "owner",
      "outputs": [
        {
          "internalType": "address",
          "name": "",
          "type": "address"
        }
      ],
      "stateMutability": "view",
      "type": "function"
    },
    {
      "inputs": [
        {
          "internalType": "address",
          "name": "",
          "type": "address"
        },
        {
          "internalType": "bytes32",
          "name": "",
          "type": "bytes32"
        }
      ],
      "name": "userBorrowedBooks",
      "outputs": [
        {
          "internalType": "uint8",
          "name": "",
          "type": "uint8"
        }
      ],
      "stateMutability": "view",
      "type": "function"
    },
    {
      "inputs": [
        {
          "internalType": "string",
          "name": "_bookName",
          "type": "string"
        },
        {
          "internalType": "uint64",
          "name": "_numberOfCopies",
          "type": "uint64"
        }
      ],
      "name": "addBook",
      "outputs": [],
      "stateMutability": "nonpayable",
      "type": "function"
    },
    {
      "inputs": [
        {
          "internalType": "bytes32",
          "name": "_bookId",
          "type": "bytes32"
        }
      ],
      "name": "borrowBookById",
      "outputs": [],
      "stateMutability": "nonpayable",
      "type": "function"
    },
    {
      "inputs": [
        {
          "internalType": "bytes32",
          "name": "_bookId",
          "type": "bytes32"
        }
      ],
      "name": "returnBookById",
      "outputs": [],
      "stateMutability": "nonpayable",
      "type": "function"
    },
    {
      "inputs": [
        {
          "internalType": "bytes32",
          "name": "_bookId",
          "type": "bytes32"
        }
      ],
      "name": "getUsersBorrowedBook",
      "outputs": [
        {
          "internalType": "address[]",
          "name": "",
          "type": "address[]"
        }
      ],
      "stateMutability": "view",
      "type": "function"
    },
    {
      "inputs": [],
      "name": "getCount",
      "outputs": [
        {
          "internalType": "uint256",
          "name": "count",
          "type": "uint256"
        }
      ],
      "stateMutability": "view",
      "type": "function"
    },
    {
      "inputs": [],
      "name": "getAllBooks",
      "outputs": [
        {
          "components": [
            {
              "internalType": "string",
              "name": "bookName",
              "type": "string"
            },
            {
              "internalType": "uint64",
              "name": "numberOfCopies",
              "type": "uint64"
            },
            {
              "internalType": "bytes32",
              "name": "bookId",
              "type": "bytes32"
            },
            {
              "internalType": "address[]",
              "name": "borrowedFromAdresses",
              "type": "address[]"
            }
          ],
          "internalType": "struct BookLibrary.Book[]",
          "name": "",
          "type": "tuple[]"
        }
      ],
      "stateMutability": "view",
      "type": "function"
    }
  ],
  "bytecode": "0x608060405234801561001057600080fd5b50600080546001600160a01b03191633179055611130806100326000396000f3fe608060405234801561001057600080fd5b50600436106100be5760003560e01c80636cddfeff11610076578063a054bf501161005b578063a054bf5014610173578063a87d942c14610193578063dae47ab0146101a8576100be565b80636cddfeff1461014b5780638da5cb5b1461015e576100be565b8063354528e8116100a7578063354528e81461010357806346f4172a146101185780636aebba0914610138576100be565b8063062ffa71146100c35780630c0dee70146100d8575b600080fd5b6100d66100d1366004610b2f565b6101bb565b005b6100eb6100e6366004610b2f565b61034d565b6040516100fa93929190610e57565b60405180910390f35b61010b610400565b6040516100fa9190610d80565b61012b610126366004610b2f565b6105ef565b6040516100fa9190610d33565b6100d6610146366004610b2f565b61065f565b6100d6610159366004610b47565b610721565b610166610953565b6040516100fa9190610c48565b610186610181366004610af9565b610962565b6040516100fa91906110b0565b61019b610982565b6040516100fa9190610e4e565b61019b6101b6366004610b2f565b610988565b8060016000828152602001908152602001600020600001805460018160011615610100020316600290049050600014156102105760405162461bcd60e51b815260040161020790611042565b60405180910390fd5b6000818152600160208190526040909120015467ffffffffffffffff166102495760405162461bcd60e51b815260040161020790610f9d565b33600090815260026020908152604080832084845290915290205460ff16600114156102875760405162461bcd60e51b815260040161020790610ee3565b6000828152600160208181526040808420808401805467ffffffffffffffff19811667ffffffffffffffff9182166000190190911617905560038101805480860182559086528386200180543373ffffffffffffffffffffffffffffffffffffffff19909116811790915580865260028452828620888752845294829020805460ff19168517905592909152517f3fe4f233676aaf0d0bebb622e330814c40074fe607082e9ecb3d1d48ae1d86a992610341929091610c98565b60405180910390a15050565b60016020818152600092835260409283902080548451600294821615610100026000190190911693909304601f81018390048302840183019094528383529283918301828280156103df5780601f106103b4576101008083540402835291602001916103df565b820191906000526020600020905b8154815290600101906020018083116103c257829003601f168201915b505050506001830154600290930154919267ffffffffffffffff1691905083565b600354606090819067ffffffffffffffff8111801561041e57600080fd5b5060405190808252806020026020018201604052801561045857816020015b6104456109a9565b81526020019060019003908161043d5790505b50905060005b6003548110156105e957600160006003838154811061047957fe5b600091825260208083209190910154835282810193909352604091820190208151815460026001821615610100026000190190911604601f8101859004909402810160a09081019093526080810184815290939192849284918401828280156105235780601f106104f857610100808354040283529160200191610523565b820191906000526020600020905b81548152906001019060200180831161050657829003601f168201915b505050505081526020016001820160009054906101000a900467ffffffffffffffff1667ffffffffffffffff1667ffffffffffffffff16815260200160028201548152602001600382018054806020026020016040519081016040528092919081815260200182805480156105c157602002820191906000526020600020905b81546001600160a01b031681526001909101906020018083116105a3575b5050505050815250508282815181106105d657fe5b602090810291909101015260010161045e565b50905090565b60008181526001602090815260409182902060030180548351818402810184019094528084526060939283018282801561065257602002820191906000526020600020905b81546001600160a01b03168152600190910190602001808311610634575b505050505090505b919050565b336000908152600260209081526040808320848452909152902054819060ff1660011461069e5760405162461bcd60e51b815260040161020790610fd4565b6000828152600160208181526040808420808401805467ffffffffffffffff80821687011667ffffffffffffffff199091161790553380865260028452828620888752845294829020805460ff1916905592909152517fe3cd3b52a818cbb5f9753b3887e5654b9db07a5e3754f33dbb8fe8ab597682c792610341929091610c98565b6000546001600160a01b0316331461074b5760405162461bcd60e51b815260040161020790611079565b81600081511161076d5760405162461bcd60e51b81526004016102079061100b565b8160008167ffffffffffffffff16116107985760405162461bcd60e51b815260040161020790610e86565b8360016000826040516020016107ae9190610c2c565b60408051601f198184030181529181528151602092830120835290820192909252016000205460026000196101006001841615020190911604156108045760405162461bcd60e51b815260040161020790610f40565b60606000866040516020016108199190610c2c565b6040516020818303038152906040528051906020012090506108396109a9565b506040805160808101825288815267ffffffffffffffff88166020808301919091528183018490526060820185905260008481526001825292909220815180519293849361088a92849201906109de565b5060208281015160018301805467ffffffffffffffff191667ffffffffffffffff90921691909117905560408301516002830155606083015180516108d59260038501920190610a6a565b5050600380546001810182556000919091527fc2575a0e9e593c00f959f8c92f12db2869c3395a3b0502d05e2516446f71f85b01839055506040517f82101690d24dd630a230245038a1fd10dd65503e6a15fadd35bd8752cd2859fa906109419033908b908b90610c5c565b60405180910390a15050505050505050565b6000546001600160a01b031681565b600260209081526000928352604080842090915290825290205460ff1681565b60035490565b6003818154811061099857600080fd5b600091825260209091200154905081565b604051806080016040528060608152602001600067ffffffffffffffff16815260200160008019168152602001606081525090565b828054600181600116156101000203166002900490600052602060002090601f016020900481019282610a145760008555610a5a565b82601f10610a2d57805160ff1916838001178555610a5a565b82800160010185558215610a5a579182015b82811115610a5a578251825591602001919060010190610a3f565b50610a66929150610acc565b5090565b828054828255906000526020600020908101928215610a5a579160200282015b82811115610a5a578251825473ffffffffffffffffffffffffffffffffffffffff19166001600160a01b03909116178255602090920191600190910190610a8a565b5b80821115610a665760008155600101610acd565b803567ffffffffffffffff8116811461065a57600080fd5b60008060408385031215610b0b578182fd5b82356001600160a01b0381168114610b21578283fd5b946020939093013593505050565b600060208284031215610b40578081fd5b5035919050565b60008060408385031215610b59578182fd5b823567ffffffffffffffff80821115610b70578384fd5b818501915085601f830112610b83578384fd5b813581811115610b8f57fe5b6040516020601f8301601f1916820181018481118382101715610bae57fe5b6040528282528483018101891015610bc4578687fd5b828186018284013786818484010152819650610be1818901610ae1565b955050505050509250929050565b6001600160a01b0316815260200190565b60008151808452610c188160208601602086016110ca565b601f01601f19169290920160200192915050565b60008251610c3e8184602087016110ca565b9190910192915050565b6001600160a01b0391909116815260200190565b60006001600160a01b038516825260606020830152610c7e6060830185610c00565b905067ffffffffffffffff83166040830152949350505050565b6000604082016001600160a01b03851683526020604081850152828554600180821660008114610ccf5760018114610ced57610d25565b60028304607f16865260ff1983166060890152608088019350610d25565b60028304808752610cfd8a6110be565b885b82811015610d1b5781548b820160600152908401908701610cff565b8a01606001955050505b509198975050505050505050565b6020808252825182820181905260009190848201906040850190845b81811015610d745783516001600160a01b031683529284019291840191600101610d4f565b50909695505050505050565b60208082528251828201819052600091906040908185019080840286018301878501865b83811015610e4057603f19898403018552815160808151818652610dca82870182610c00565b838b015167ffffffffffffffff16878c0152898401518a880152606093840151878203948801949094528351808252938b01938c9350908b0191505b80831015610e2b57610e19828551610bef565b91508a84019350600183019250610e06565b50968901969450505090860190600101610da4565b509098975050505050505050565b90815260200190565b600060608252610e6a6060830186610c00565b67ffffffffffffffff9490941660208301525060400152919050565b60208082526022908201527f596f75206e65656420746f2070726f766964652076616c6964207175616e746960408201527f7479000000000000000000000000000000000000000000000000000000000000606082015260800190565b60208082526037908201527f596f752061726520616c6c6f77656420746f20626f72726f77206f6e6c79206f60408201527f6e6520636f7079206f66206365727461696e20626f6f6b000000000000000000606082015260800190565b6020808252602a908201527f596f7520616c72656164792068617665207468697320626f6f6b20696e20796f60408201527f7572206c69627261727900000000000000000000000000000000000000000000606082015260800190565b6020808252600b908201527f4e6f207175616e74697479000000000000000000000000000000000000000000604082015260600190565b6020808252601e908201527f596f7520686176656e277420626f72726f776564207468697320626f6f6b0000604082015260600190565b6020808252601d908201527f596f75206861766520746f2070726f7669646520626f6f6b206e616d65000000604082015260600190565b6020808252600f908201527f496e76616c696420626f6f6b2069640000000000000000000000000000000000604082015260600190565b60208082526018908201527f4e6f7420696e766f6b656420627920746865206f776e65720000000000000000604082015260600190565b60ff91909116815260200190565b60009081526020902090565b60005b838110156110e55781810151838201526020016110cd565b838111156110f4576000848401525b5050505056fea2646970667358221220a59c42a2a03de3f291a36c45919908c0333671ea2683575b7897d1fdfe81385964736f6c63430007050033",
  "source": "// SPDX-License-Identifier: UNLICENSED\npragma solidity ^0.7.0;\npragma abicoder v2;\nimport './Ownable.sol';\n\ncontract BookLibrary is Ownable {\n\n    struct Book {\n        string bookName;\n        uint64 numberOfCopies;\n        bytes32 bookId;\n        address[] borrowedFromAdresses;\n    }\n\n    //All books in library    \n    mapping (bytes32 => Book) public books;\n    //Holds information about the borrowed books by user \n    mapping (address => mapping(bytes32 => uint8)) public userBorrowedBooks;\n    //Array with the keys of all existing books \n    bytes32[] public bookKeys;\n    \n    //Adding events so the front-end could hook to them\n    event NewBookAdded(address _user, string _bookName, uint64 _quantity);\n    event BookBorrowed(address _user, string _bookName);\n    event BookReturned(address _user, string _bookName);\n\n    modifier validTitle(string memory _bookName) {\n        require (bytes(_bookName).length > 0, \"You have to provide book name\");\n        _;\n    }\n    \n    modifier validQuantity(uint64 _numberOfCopies) {\n        require (_numberOfCopies > 0, \"You need to provide valid quantity\");\n        _;\n    }\n    \n    modifier bookNotExist(string memory _bookName) {\n        require (bytes(books[keccak256(abi.encodePacked(_bookName))].bookName).length == 0, \"You already have this book in your library\");\n        _;\n    }\n    \n    modifier userAllowedToBorrowBook(bytes32 _bookId) {\n        require (bytes(books[_bookId].bookName).length != 0, \"Invalid book id\");\n        require(books[_bookId].numberOfCopies > 0, \"No quantity\");\n        require(userBorrowedBooks[msg.sender][_bookId] != 1, \"You are allowed to borrow only one copy of certain book\");\n        _;\n    }\n    \n    modifier userAllowedToReturnBook(bytes32 _bookId) {\n        require(userBorrowedBooks[msg.sender][_bookId] == 1, \"You haven't borrowed this book\");\n        _;\n    }\n    \n    function addBook (string memory _bookName, uint64 _numberOfCopies) public onlyOwner validTitle(_bookName) validQuantity(_numberOfCopies) bookNotExist(_bookName){\n        address[] memory borrowedFromAdresses;\n        bytes32 bookKey = keccak256(abi.encodePacked(_bookName));\n        Book memory newBook = Book(_bookName, _numberOfCopies, bookKey, borrowedFromAdresses);\n\n        books[bookKey] = newBook;\n        bookKeys.push(bookKey);\n        \n        emit NewBookAdded(msg.sender, _bookName, _numberOfCopies);\n    }\n    \n    function borrowBookById(bytes32 _bookId) public userAllowedToBorrowBook(_bookId) {\n        books[_bookId].numberOfCopies--;\n        books[_bookId].borrowedFromAdresses.push(msg.sender);\n        userBorrowedBooks[msg.sender][_bookId] = 1;\n        \n        emit BookBorrowed(msg.sender, books[_bookId].bookName);\n    }\n    \n    function returnBookById(bytes32 _bookId) public userAllowedToReturnBook(_bookId) {\n        books[_bookId].numberOfCopies++;\n        userBorrowedBooks[msg.sender][_bookId] = 0;\n        \n        emit BookReturned(msg.sender, books[_bookId].bookName);\n    }\n    \n    function getUsersBorrowedBook(bytes32 _bookId) public view returns(address[] memory) {\n        return books[_bookId].borrowedFromAdresses;\n    }\n    \n    function getCount() public view returns(uint count) {\n        return bookKeys.length;\n    }   \n    //Returns all the books as an array, so the user could have a list the books in the library.\n    //Implemented in case if user interacts with the contract using Remix interface. It might not be needed if user interacts with the contract using web3 client.\n    function getAllBooks() public view returns (Book[] memory) {\n        Book[] memory availableBooks = new Book[](bookKeys.length);\n\n        for(uint i=0; i < bookKeys.length; i++){\n            availableBooks[i] = books[bookKeys[i]];\n        }\n        \n        return availableBooks;\n    }\n}",
  "sourcePath": "/Users/dimitaratanasov/Desktop/lime training/contracts/BookLibrary.sol",
  "compiler": {
    "name": "solc",
    "version": "0.7.5+commit.eb77ed08.Emscripten.clang",
    "optimizer": true,
    "runs": 999
  },
  "schemaVersion": "2.3.5",
  "updatedAt": "2021-06-23T08:18:48.296Z"
}