{
  "contractName": "BookLibrary",
  "abi": [
    {
      "inputs": [
        {
          "internalType": "address",
          "name": "_libTokenAddress",
          "type": "address"
        },
        {
          "internalType": "address",
          "name": "_libWrapperAddress",
          "type": "address"
        }
      ],
      "stateMutability": "nonpayable",
      "type": "constructor"
    },
    {
      "anonymous": false,
      "inputs": [
        {
          "indexed": false,
          "internalType": "address",
          "name": "_user",
          "type": "address"
        },
        {
          "indexed": false,
          "internalType": "string",
          "name": "_bookName",
          "type": "string"
        }
      ],
      "name": "BookBorrowed",
      "type": "event"
    },
    {
      "anonymous": false,
      "inputs": [
        {
          "indexed": false,
          "internalType": "address",
          "name": "_user",
          "type": "address"
        },
        {
          "indexed": false,
          "internalType": "string",
          "name": "_bookName",
          "type": "string"
        }
      ],
      "name": "BookReturned",
      "type": "event"
    },
    {
      "anonymous": false,
      "inputs": [
        {
          "indexed": false,
          "internalType": "address",
          "name": "_user",
          "type": "address"
        },
        {
          "indexed": false,
          "internalType": "string",
          "name": "_bookName",
          "type": "string"
        },
        {
          "indexed": false,
          "internalType": "uint64",
          "name": "_quantity",
          "type": "uint64"
        }
      ],
      "name": "NewBookAdded",
      "type": "event"
    },
    {
      "anonymous": false,
      "inputs": [
        {
          "indexed": false,
          "internalType": "uint256",
          "name": "_amount",
          "type": "uint256"
        }
      ],
      "name": "UnwrapInBookContract",
      "type": "event"
    },
    {
      "inputs": [],
      "name": "LIBToken",
      "outputs": [
        {
          "internalType": "contract LibToken",
          "name": "",
          "type": "address"
        }
      ],
      "stateMutability": "view",
      "type": "function"
    },
    {
      "inputs": [
        {
          "internalType": "uint256",
          "name": "",
          "type": "uint256"
        }
      ],
      "name": "bookKeys",
      "outputs": [
        {
          "internalType": "bytes32",
          "name": "",
          "type": "bytes32"
        }
      ],
      "stateMutability": "view",
      "type": "function"
    },
    {
      "inputs": [
        {
          "internalType": "bytes32",
          "name": "",
          "type": "bytes32"
        }
      ],
      "name": "books",
      "outputs": [
        {
          "internalType": "string",
          "name": "bookName",
          "type": "string"
        },
        {
          "internalType": "uint64",
          "name": "numberOfCopies",
          "type": "uint64"
        },
        {
          "internalType": "bytes32",
          "name": "bookId",
          "type": "bytes32"
        }
      ],
      "stateMutability": "view",
      "type": "function"
    },
    {
      "inputs": [],
      "name": "owner",
      "outputs": [
        {
          "internalType": "address",
          "name": "",
          "type": "address"
        }
      ],
      "stateMutability": "view",
      "type": "function"
    },
    {
      "inputs": [],
      "name": "rentPrice",
      "outputs": [
        {
          "internalType": "uint256",
          "name": "",
          "type": "uint256"
        }
      ],
      "stateMutability": "view",
      "type": "function"
    },
    {
      "inputs": [
        {
          "internalType": "address",
          "name": "",
          "type": "address"
        },
        {
          "internalType": "bytes32",
          "name": "",
          "type": "bytes32"
        }
      ],
      "name": "userBorrowedBooks",
      "outputs": [
        {
          "internalType": "uint8",
          "name": "",
          "type": "uint8"
        }
      ],
      "stateMutability": "view",
      "type": "function"
    },
    {
      "inputs": [],
      "name": "wrapperContract",
      "outputs": [
        {
          "internalType": "contract WrapperContract",
          "name": "",
          "type": "address"
        }
      ],
      "stateMutability": "view",
      "type": "function"
    },
    {
      "inputs": [
        {
          "internalType": "string",
          "name": "_bookName",
          "type": "string"
        },
        {
          "internalType": "uint64",
          "name": "_numberOfCopies",
          "type": "uint64"
        }
      ],
      "name": "addBook",
      "outputs": [],
      "stateMutability": "nonpayable",
      "type": "function"
    },
    {
      "inputs": [
        {
          "internalType": "bytes32",
          "name": "_bookId",
          "type": "bytes32"
        }
      ],
      "name": "borrowBookById",
      "outputs": [],
      "stateMutability": "nonpayable",
      "type": "function"
    },
    {
      "inputs": [
        {
          "internalType": "bytes32",
          "name": "_bookId",
          "type": "bytes32"
        }
      ],
      "name": "returnBookById",
      "outputs": [],
      "stateMutability": "nonpayable",
      "type": "function"
    },
    {
      "inputs": [
        {
          "internalType": "bytes32",
          "name": "_bookId",
          "type": "bytes32"
        }
      ],
      "name": "getUsersBorrowedBook",
      "outputs": [
        {
          "internalType": "address[]",
          "name": "",
          "type": "address[]"
        }
      ],
      "stateMutability": "view",
      "type": "function"
    },
    {
      "inputs": [],
      "name": "getCount",
      "outputs": [
        {
          "internalType": "uint256",
          "name": "count",
          "type": "uint256"
        }
      ],
      "stateMutability": "view",
      "type": "function"
    },
    {
      "inputs": [],
      "name": "getAllBooks",
      "outputs": [
        {
          "components": [
            {
              "internalType": "string",
              "name": "bookName",
              "type": "string"
            },
            {
              "internalType": "uint64",
              "name": "numberOfCopies",
              "type": "uint64"
            },
            {
              "internalType": "bytes32",
              "name": "bookId",
              "type": "bytes32"
            },
            {
              "internalType": "address[]",
              "name": "borrowedFromAdresses",
              "type": "address[]"
            }
          ],
          "internalType": "struct BookLibrary.Book[]",
          "name": "",
          "type": "tuple[]"
        }
      ],
      "stateMutability": "view",
      "type": "function"
    },
    {
      "inputs": [
        {
          "internalType": "uint256",
          "name": "_amount",
          "type": "uint256"
        }
      ],
      "name": "exchangeTokens",
      "outputs": [],
      "stateMutability": "nonpayable",
      "type": "function"
    }
  ],
  "bytecode": "0x6080604052662386f26fc100006008553480156200001c57600080fd5b50604051620023f1380380620023f18339818101604052810190620000429190620001ab565b336000806101000a81548173ffffffffffffffffffffffffffffffffffffffff021916908373ffffffffffffffffffffffffffffffffffffffff160217905550600081905082600460006101000a81548173ffffffffffffffffffffffffffffffffffffffff021916908373ffffffffffffffffffffffffffffffffffffffff16021790555081600360006101000a81548173ffffffffffffffffffffffffffffffffffffffff021916908373ffffffffffffffffffffffffffffffffffffffff16021790555082600160006101000a81548173ffffffffffffffffffffffffffffffffffffffff021916908373ffffffffffffffffffffffffffffffffffffffff16021790555080600260006101000a81548173ffffffffffffffffffffffffffffffffffffffff021916908373ffffffffffffffffffffffffffffffffffffffff1602179055505050506200023a565b600081519050620001a58162000220565b92915050565b60008060408385031215620001bf57600080fd5b6000620001cf8582860162000194565b9250506020620001e28582860162000194565b9150509250929050565b6000620001f98262000200565b9050919050565b600073ffffffffffffffffffffffffffffffffffffffff82169050919050565b6200022b81620001ec565b81146200023757600080fd5b50565b6121a7806200024a6000396000f3fe608060405234801561001057600080fd5b50600436106100ea5760003560e01c80636cddfeff1161008c578063a87d942c11610066578063a87d942c1461024b578063dae47ab014610269578063e2e8b93514610299578063f8af64ed146102b7576100ea565b80636cddfeff146101e15780638da5cb5b146101fd578063a054bf501461021b576100ea565b8063354528e8116100c8578063354528e81461015b578063404771261461017957806346f4172a146101955780636aebba09146101c5576100ea565b8063062ffa71146100ef5780630c0dee701461010b5780631ba3192b1461013d575b600080fd5b610109600480360381019061010491906114d2565b6102d5565b005b610125600480360381019061012091906114d2565b6106a2565b60405161013493929190611d1d565b60405180910390f35b610145610778565b6040516101529190611ce7565b60405180910390f35b61016361079e565b6040516101709190611caa565b60405180910390f35b610193600480360381019061018e919061154f565b6109d7565b005b6101af60048036038101906101aa91906114d2565b610bfe565b6040516101bc9190611c88565b60405180910390f35b6101df60048036038101906101da91906114d2565b610ca2565b005b6101fb60048036038101906101f691906114fb565b610e5d565b005b61020561116c565b6040516102129190611b9f565b60405180910390f35b6102356004803603810190610230919061146d565b611190565b6040516102429190611e76565b60405180910390f35b6102536111bf565b6040516102609190611e5b565b60405180910390f35b610283600480360381019061027e919061154f565b6111cc565b6040516102909190611ccc565b60405180910390f35b6102a16111ed565b6040516102ae9190611d02565b60405180910390f35b6102bf611213565b6040516102cc9190611e5b565b60405180910390f35b806000600560008381526020019081526020016000206000018054600181600116156101000203166002900490501415610344576040517f08c379a000000000000000000000000000000000000000000000000000000000815260040161033b90611e1b565b60405180910390fd5b60006005600083815260200190815260200160002060010160009054906101000a900467ffffffffffffffff1667ffffffffffffffff16116103bb576040517f08c379a00000000000000000000000000000000000000000000000000000000081526004016103b290611dbb565b60405180910390fd5b6001600660003373ffffffffffffffffffffffffffffffffffffffff1673ffffffffffffffffffffffffffffffffffffffff168152602001908152602001600020600083815260200190815260200160002060009054906101000a900460ff1660ff16141561045f576040517f08c379a000000000000000000000000000000000000000000000000000000000815260040161045690611d7b565b60405180910390fd5b600160009054906101000a900473ffffffffffffffffffffffffffffffffffffffff1673ffffffffffffffffffffffffffffffffffffffff166323b872dd33306008546040518463ffffffff1660e01b81526004016104c093929190611bba565b602060405180830381600087803b1580156104da57600080fd5b505af11580156104ee573d6000803e3d6000fd5b505050506040513d601f19601f8201168201806040525081019061051291906114a9565b5060056000838152602001908152602001600020600101600081819054906101000a900467ffffffffffffffff16809291906001900391906101000a81548167ffffffffffffffff021916908367ffffffffffffffff1602179055505060056000838152602001908152602001600020600301339080600181540180825580915050600190039060005260206000200160009091909190916101000a81548173ffffffffffffffffffffffffffffffffffffffff021916908373ffffffffffffffffffffffffffffffffffffffff1602179055506001600660003373ffffffffffffffffffffffffffffffffffffffff1673ffffffffffffffffffffffffffffffffffffffff168152602001908152602001600020600084815260200190815260200160002060006101000a81548160ff021916908360ff1602179055507f3fe4f233676aaf0d0bebb622e330814c40074fe607082e9ecb3d1d48ae1d86a93360056000858152602001908152602001600020600001604051610696929190611c2f565b60405180910390a15050565b6005602052806000526040600020600091509050806000018054600181600116156101000203166002900480601f01602080910402602001604051908101604052809291908181526020018280546001816001161561010002031660029004801561074e5780601f106107235761010080835404028352916020019161074e565b820191906000526020600020905b81548152906001019060200180831161073157829003601f168201915b5050505050908060010160009054906101000a900467ffffffffffffffff16908060020154905083565b600160009054906101000a900473ffffffffffffffffffffffffffffffffffffffff1681565b60608060078054905067ffffffffffffffff811180156107bd57600080fd5b506040519080825280602002602001820160405280156107f757816020015b6107e4611219565b8152602001906001900390816107dc5790505b50905060005b6007805490508110156109cf57600560006007838154811061081b57fe5b90600052602060002001548152602001908152602001600020604051806080016040529081600082018054600181600116156101000203166002900480601f0160208091040260200160405190810160405280929190818152602001828054600181600116156101000203166002900480156108d85780601f106108ad576101008083540402835291602001916108d8565b820191906000526020600020905b8154815290600101906020018083116108bb57829003601f168201915b505050505081526020016001820160009054906101000a900467ffffffffffffffff1667ffffffffffffffff1667ffffffffffffffff16815260200160028201548152602001600382018054806020026020016040519081016040528092919081815260200182805480156109a257602002820191906000526020600020905b8160009054906101000a900473ffffffffffffffffffffffffffffffffffffffff1673ffffffffffffffffffffffffffffffffffffffff1681526020019060010190808311610958575b5050505050815250508282815181106109b757fe5b602002602001018190525080806001019150506107fd565b508091505090565b3373ffffffffffffffffffffffffffffffffffffffff1660008054906101000a900473ffffffffffffffffffffffffffffffffffffffff1673ffffffffffffffffffffffffffffffffffffffff1614610a65576040517f08c379a0000000000000000000000000000000000000000000000000000000008152600401610a5c90611e3b565b60405180910390fd5b600160009054906101000a900473ffffffffffffffffffffffffffffffffffffffff1673ffffffffffffffffffffffffffffffffffffffff1663095ea7b3600360009054906101000a900473ffffffffffffffffffffffffffffffffffffffff16836040518363ffffffff1660e01b8152600401610ae4929190611c5f565b602060405180830381600087803b158015610afe57600080fd5b505af1158015610b12573d6000803e3d6000fd5b505050506040513d601f19601f82011682018060405250810190610b3691906114a9565b507ffe6bc1cb3eea4afff7f53d3433775946658a78135835b151ae13ac0b18ad7d1581604051610b669190611e5b565b60405180910390a1600260009054906101000a900473ffffffffffffffffffffffffffffffffffffffff1673ffffffffffffffffffffffffffffffffffffffff1663de0e9a3e826040518263ffffffff1660e01b8152600401610bc99190611e5b565b600060405180830381600087803b158015610be357600080fd5b505af1158015610bf7573d6000803e3d6000fd5b5050505050565b606060056000838152602001908152602001600020600301805480602002602001604051908101604052809291908181526020018280548015610c9657602002820191906000526020600020905b8160009054906101000a900473ffffffffffffffffffffffffffffffffffffffff1673ffffffffffffffffffffffffffffffffffffffff1681526020019060010190808311610c4c575b50505050509050919050565b806001600660003373ffffffffffffffffffffffffffffffffffffffff1673ffffffffffffffffffffffffffffffffffffffff168152602001908152602001600020600083815260200190815260200160002060009054906101000a900460ff1660ff1614610d46576040517f08c379a0000000000000000000000000000000000000000000000000000000008152600401610d3d90611ddb565b60405180910390fd5b60056000838152602001908152602001600020600101600081819054906101000a900467ffffffffffffffff168092919060010191906101000a81548167ffffffffffffffff021916908367ffffffffffffffff160217905550506000600660003373ffffffffffffffffffffffffffffffffffffffff1673ffffffffffffffffffffffffffffffffffffffff168152602001908152602001600020600084815260200190815260200160002060006101000a81548160ff021916908360ff1602179055507fe3cd3b52a818cbb5f9753b3887e5654b9db07a5e3754f33dbb8fe8ab597682c73360056000858152602001908152602001600020600001604051610e51929190611c2f565b60405180910390a15050565b3373ffffffffffffffffffffffffffffffffffffffff1660008054906101000a900473ffffffffffffffffffffffffffffffffffffffff1673ffffffffffffffffffffffffffffffffffffffff1614610eeb576040517f08c379a0000000000000000000000000000000000000000000000000000000008152600401610ee290611e3b565b60405180910390fd5b816000815111610f30576040517f08c379a0000000000000000000000000000000000000000000000000000000008152600401610f2790611dfb565b60405180910390fd5b8160008167ffffffffffffffff1611610f7e576040517f08c379a0000000000000000000000000000000000000000000000000000000008152600401610f7590611d5b565b60405180910390fd5b8360006005600083604051602001610f969190611b88565b60405160208183030381529060405280519060200120815260200190815260200160002060000180546001816001161561010002031660029004905014611012576040517f08c379a000000000000000000000000000000000000000000000000000000000815260040161100990611d9b565b60405180910390fd5b60606000866040516020016110279190611b88565b604051602081830303815290604052805190602001209050611047611219565b60405180608001604052808981526020018867ffffffffffffffff168152602001838152602001848152509050806005600084815260200190815260200160002060008201518160000190805190602001906110a492919061124e565b5060208201518160010160006101000a81548167ffffffffffffffff021916908367ffffffffffffffff1602179055506040820151816002015560608201518160030190805190602001906110fa9291906112ce565b5090505060078290806001815401808255809150506001900390600052602060002001600090919091909150557f82101690d24dd630a230245038a1fd10dd65503e6a15fadd35bd8752cd2859fa33898960405161115a93929190611bf1565b60405180910390a15050505050505050565b60008054906101000a900473ffffffffffffffffffffffffffffffffffffffff1681565b60066020528160005260406000206020528060005260406000206000915091509054906101000a900460ff1681565b6000600780549050905090565b600781815481106111d957fe5b906000526020600020016000915090505481565b600260009054906101000a900473ffffffffffffffffffffffffffffffffffffffff1681565b60085481565b604051806080016040528060608152602001600067ffffffffffffffff16815260200160008019168152602001606081525090565b828054600181600116156101000203166002900490600052602060002090601f016020900481019282601f1061128f57805160ff19168380011785556112bd565b828001600101855582156112bd579182015b828111156112bc5782518255916020019190600101906112a1565b5b5090506112ca9190611358565b5090565b828054828255906000526020600020908101928215611347579160200282015b828111156113465782518260006101000a81548173ffffffffffffffffffffffffffffffffffffffff021916908373ffffffffffffffffffffffffffffffffffffffff160217905550916020019190600101906112ee565b5b5090506113549190611375565b5090565b5b80821115611371576000816000905550600101611359565b5090565b5b808211156113ac57600081816101000a81549073ffffffffffffffffffffffffffffffffffffffff021916905550600101611376565b5090565b6000813590506113bf816120fe565b92915050565b6000815190506113d481612115565b92915050565b6000813590506113e98161212c565b92915050565b600082601f83011261140057600080fd5b813561141361140e82611ebe565b611e91565b9150808252602083016020830185838301111561142f57600080fd5b61143a8382846120ab565b50505092915050565b60008135905061145281612143565b92915050565b6000813590506114678161215a565b92915050565b6000806040838503121561148057600080fd5b600061148e858286016113b0565b925050602061149f858286016113da565b9150509250929050565b6000602082840312156114bb57600080fd5b60006114c9848285016113c5565b91505092915050565b6000602082840312156114e457600080fd5b60006114f2848285016113da565b91505092915050565b6000806040838503121561150e57600080fd5b600083013567ffffffffffffffff81111561152857600080fd5b611534858286016113ef565b925050602061154585828601611458565b9150509250929050565b60006020828403121561156157600080fd5b600061156f84828501611443565b91505092915050565b600061158483836115b3565b60208301905092915050565b600061159c8383611ae2565b905092915050565b6115ad8161202d565b82525050565b6115bc81611fba565b82525050565b6115cb81611fba565b82525050565b60006115dc82611f1f565b6115e68185611f5a565b93506115f183611eea565b8060005b838110156116225781516116098882611578565b975061161483611f40565b9250506001810190506115f5565b5085935050505092915050565b600061163a82611f1f565b6116448185611f6b565b935061164f83611eea565b8060005b838110156116805781516116678882611578565b975061167283611f40565b925050600181019050611653565b5085935050505092915050565b600061169882611f2a565b6116a28185611f7c565b9350836020820285016116b485611efa565b8060005b858110156116f057848403895281516116d18582611590565b94506116dc83611f4d565b925060208a019950506001810190506116b8565b50829750879550505050505092915050565b61170b81611fd8565b82525050565b61171a81611fd8565b82525050565b6117298161203f565b82525050565b61173881612063565b82525050565b600061174982611f35565b6117538185611f8d565b93506117638185602086016120ba565b61176c816120ed565b840191505092915050565b600061178282611f35565b61178c8185611f9e565b935061179c8185602086016120ba565b6117a5816120ed565b840191505092915050565b60006117bb82611f35565b6117c58185611faf565b93506117d58185602086016120ba565b80840191505092915050565b6000815460018116600081146117fe576001811461182457611868565b607f600283041661180f8187611f9e565b955060ff198316865260208601935050611868565b600282046118328187611f9e565b955061183d85611f0a565b60005b8281101561185f57815481890152600182019150602081019050611840565b80880195505050505b505092915050565b600061187d602283611f9e565b91507f596f75206e65656420746f2070726f766964652076616c6964207175616e746960008301527f74790000000000000000000000000000000000000000000000000000000000006020830152604082019050919050565b60006118e3603783611f9e565b91507f596f752061726520616c6c6f77656420746f20626f72726f77206f6e6c79206f60008301527f6e6520636f7079206f66206365727461696e20626f6f6b0000000000000000006020830152604082019050919050565b6000611949602a83611f9e565b91507f596f7520616c72656164792068617665207468697320626f6f6b20696e20796f60008301527f7572206c696272617279000000000000000000000000000000000000000000006020830152604082019050919050565b60006119af600b83611f9e565b91507f4e6f207175616e746974790000000000000000000000000000000000000000006000830152602082019050919050565b60006119ef601e83611f9e565b91507f596f7520686176656e277420626f72726f776564207468697320626f6f6b00006000830152602082019050919050565b6000611a2f601d83611f9e565b91507f596f75206861766520746f2070726f7669646520626f6f6b206e616d650000006000830152602082019050919050565b6000611a6f600f83611f9e565b91507f496e76616c696420626f6f6b20696400000000000000000000000000000000006000830152602082019050919050565b6000611aaf601883611f9e565b91507f4e6f7420696e766f6b656420627920746865206f776e657200000000000000006000830152602082019050919050565b60006080830160008301518482036000860152611aff828261173e565b9150506020830151611b146020860182611b5b565b506040830151611b276040860182611702565b5060608301518482036060860152611b3f82826115d1565b9150508091505092915050565b611b5581612002565b82525050565b611b648161200c565b82525050565b611b738161200c565b82525050565b611b8281612020565b82525050565b6000611b9482846117b0565b915081905092915050565b6000602082019050611bb460008301846115c2565b92915050565b6000606082019050611bcf60008301866115a4565b611bdc60208301856115c2565b611be96040830184611b4c565b949350505050565b6000606082019050611c0660008301866115a4565b8181036020830152611c188185611777565b9050611c276040830184611b6a565b949350505050565b6000604082019050611c4460008301856115a4565b8181036020830152611c5681846117e1565b90509392505050565b6000604082019050611c7460008301856115c2565b611c816020830184611b4c565b9392505050565b60006020820190508181036000830152611ca2818461162f565b905092915050565b60006020820190508181036000830152611cc4818461168d565b905092915050565b6000602082019050611ce16000830184611711565b92915050565b6000602082019050611cfc6000830184611720565b92915050565b6000602082019050611d17600083018461172f565b92915050565b60006060820190508181036000830152611d378186611777565b9050611d466020830185611b6a565b611d536040830184611711565b949350505050565b60006020820190508181036000830152611d7481611870565b9050919050565b60006020820190508181036000830152611d94816118d6565b9050919050565b60006020820190508181036000830152611db48161193c565b9050919050565b60006020820190508181036000830152611dd4816119a2565b9050919050565b60006020820190508181036000830152611df4816119e2565b9050919050565b60006020820190508181036000830152611e1481611a22565b9050919050565b60006020820190508181036000830152611e3481611a62565b9050919050565b60006020820190508181036000830152611e5481611aa2565b9050919050565b6000602082019050611e706000830184611b4c565b92915050565b6000602082019050611e8b6000830184611b79565b92915050565b6000604051905081810181811067ffffffffffffffff82111715611eb457600080fd5b8060405250919050565b600067ffffffffffffffff821115611ed557600080fd5b601f19601f8301169050602081019050919050565b6000819050602082019050919050565b6000819050602082019050919050565b60008190508160005260206000209050919050565b600081519050919050565b600081519050919050565b600081519050919050565b6000602082019050919050565b6000602082019050919050565b600082825260208201905092915050565b600082825260208201905092915050565b600082825260208201905092915050565b600082825260208201905092915050565b600082825260208201905092915050565b600081905092915050565b6000611fc582611fe2565b9050919050565b60008115159050919050565b6000819050919050565b600073ffffffffffffffffffffffffffffffffffffffff82169050919050565b6000819050919050565b600067ffffffffffffffff82169050919050565b600060ff82169050919050565b600061203882612087565b9050919050565b600061204a82612051565b9050919050565b600061205c82611fe2565b9050919050565b600061206e82612075565b9050919050565b600061208082611fe2565b9050919050565b600061209282612099565b9050919050565b60006120a482611fe2565b9050919050565b82818337600083830152505050565b60005b838110156120d85780820151818401526020810190506120bd565b838111156120e7576000848401525b50505050565b6000601f19601f8301169050919050565b61210781611fba565b811461211257600080fd5b50565b61211e81611fcc565b811461212957600080fd5b50565b61213581611fd8565b811461214057600080fd5b50565b61214c81612002565b811461215757600080fd5b50565b6121638161200c565b811461216e57600080fd5b5056fea26469706673582212200fc45b20b349a9f983a72f9b660ced47b90b17904b048476142efd74f9c7d6ec64736f6c63430007000033",
  "source": "// SPDX-License-Identifier: UNLICENSED\npragma solidity ^0.7.0;\n// pragma abicoder v2;\npragma experimental ABIEncoderV2;\nimport './Ownable.sol';\nimport \"./LibToken.sol\";\nimport \"./LIBWrapper.sol\";\n\ncontract BookLibrary is Ownable {\n    LibToken public LIBToken;\n    WrapperContract public wrapperContract;\n\n    address wrapperAddress;\n    address tokenAddress;\n\n\n    struct Book {\n        string bookName;\n        uint64 numberOfCopies;\n        bytes32 bookId;\n        address[] borrowedFromAdresses;\n    }\n\n    //All books in library    \n    mapping (bytes32 => Book) public books;\n    //Holds information about the borrowed books by user \n    mapping (address => mapping(bytes32 => uint8)) public userBorrowedBooks;\n    //Array with the keys of all existing books \n    bytes32[] public bookKeys;\n    uint256 public rentPrice = 10000000000000000;\n    \n    //Adding events so the front-end could hook to them\n    event NewBookAdded(address _user, string _bookName, uint64 _quantity);\n    event BookBorrowed(address _user, string _bookName);\n    event BookReturned(address _user, string _bookName);\n    event UnwrapInBookContract(uint _amount);\n\n    constructor(address _libTokenAddress, address _libWrapperAddress) public {\n        address payable payableWrapperAddress = address(uint160(_libWrapperAddress));\n        tokenAddress = _libTokenAddress;\n        wrapperAddress = _libWrapperAddress;\n\n\t\t// libToken = new LibToken();\n        // wrapperContract = new WrapperContract();\n        LIBToken = LibToken(_libTokenAddress);\n        wrapperContract = WrapperContract(payableWrapperAddress);\n\t}\n\n    modifier validTitle(string memory _bookName) {\n        require (bytes(_bookName).length > 0, \"You have to provide book name\");\n        _;\n    }\n\n    modifier validQuantity(uint64 _numberOfCopies) {\n        require (_numberOfCopies > 0, \"You need to provide valid quantity\");\n        _;\n    }\n    \n    modifier bookNotExist(string memory _bookName) {\n        require (bytes(books[keccak256(abi.encodePacked(_bookName))].bookName).length == 0, \"You already have this book in your library\");\n        _;\n    }\n    \n    modifier userAllowedToBorrowBook(bytes32 _bookId) {\n        require (bytes(books[_bookId].bookName).length != 0, \"Invalid book id\");\n        require(books[_bookId].numberOfCopies > 0, \"No quantity\");\n        require(userBorrowedBooks[msg.sender][_bookId] != 1, \"You are allowed to borrow only one copy of certain book\");\n        _;\n    }\n    \n    modifier userAllowedToReturnBook(bytes32 _bookId) {\n        require(userBorrowedBooks[msg.sender][_bookId] == 1, \"You haven't borrowed this book\");\n        _;\n    }\n    \n    function addBook (string memory _bookName, uint64 _numberOfCopies) public onlyOwner validTitle(_bookName) validQuantity(_numberOfCopies) bookNotExist(_bookName){\n        address[] memory borrowedFromAdresses;\n        bytes32 bookKey = keccak256(abi.encodePacked(_bookName));\n        Book memory newBook = Book(_bookName, _numberOfCopies, bookKey, borrowedFromAdresses);\n\n        books[bookKey] = newBook;\n        bookKeys.push(bookKey);\n        \n        emit NewBookAdded(msg.sender, _bookName, _numberOfCopies);\n    }\n    \n    function borrowBookById(bytes32 _bookId) public userAllowedToBorrowBook(_bookId) {\n        LIBToken.transferFrom(msg.sender, address(this), rentPrice);\n\n        books[_bookId].numberOfCopies--;\n        books[_bookId].borrowedFromAdresses.push(msg.sender);\n        userBorrowedBooks[msg.sender][_bookId] = 1;\n        \n        emit BookBorrowed(msg.sender, books[_bookId].bookName);\n    }\n    \n    function returnBookById(bytes32 _bookId) public userAllowedToReturnBook(_bookId) {\n        books[_bookId].numberOfCopies++;\n        userBorrowedBooks[msg.sender][_bookId] = 0;\n        \n        emit BookReturned(msg.sender, books[_bookId].bookName);\n    }\n    \n    function getUsersBorrowedBook(bytes32 _bookId) public view returns(address[] memory) {\n        return books[_bookId].borrowedFromAdresses;\n    }\n    \n    function getCount() public view returns(uint count) {\n        return bookKeys.length;\n    }   \n    //Returns all the books as an array, so the user could have a list the books in the library.\n    //Implemented in case if user interacts with the contract using Remix interface. It might not be needed if user interacts with the contract using web3 client.\n    function getAllBooks() public view returns (Book[] memory) {\n        Book[] memory availableBooks = new Book[](bookKeys.length);\n\n        for(uint i=0; i < bookKeys.length; i++){\n            availableBooks[i] = books[bookKeys[i]];\n        }\n        \n        return availableBooks;\n    }\n\n    function exchangeTokens(uint _amount) public onlyOwner {\n        LIBToken.approve(wrapperAddress, _amount);\n        emit UnwrapInBookContract(_amount);\n        wrapperContract.unwrap(_amount);\n    }\n\n\n\t// receive() external payable {\n\t// \twrapperContract.wrap();\n\t// } \n}",
  "sourcePath": "/Users/dimitaratanasov/Desktop/limetraining/contracts/BookLibrary.sol",
  "compiler": {
    "name": "solc",
    "version": "0.7.0+commit.9e61f92b.Emscripten.clang",
    "optimizer": false,
    "runs": 200
  },
  "schemaVersion": "2.3.5",
  "updatedAt": "2021-06-28T13:03:35.422Z"
}